:020000040800F2
:10000000000001200DAE0008ED140008F1140008F6
:10001000F5140008F9140008FD14000800000000A1
:1000200000000000000000000000000001150008B2
:100030000515000800000000091500082516000835
:100040004DAE00084DAE00084DAE00084DAE0008A4
:100050004DAE00084DAE00084DAE00084DAE000894
:100060004DAE00084DAE00084DAE00084DAE000884
:100070004DAE00084DAE00084DAE00084DAE000874
:100080004DAE00084DAE00084DAE00084DAE000864
:100090004DAE00084DAE00084DAE00084DAE000854
:1000A0004DAE00084DAE00084DAE00084DAE000844
:1000B0004DAE00084DAE00084DAE00084DAE000834
:1000C0004DAE00084DAE00084DAE00084DAE000824
:1000D0004DAE00084DAE00084DAE00084DAE000814
:1000E0000D1500084DAE00084DAE000800000000E0
:1000F0000000000000000000000000000000000000
:1001000000000000000000004DAE00084DAE0008E9
:100110004DAE00084DAE00084DAE00084DAE0008D3
:100120004DAE00084DAE00084DAE00084DAE0008C3
:100130004DAE0008051600084DAE00084DAE000893
:100140004DAE00084DAE00084DAE00084DAE0008A3
:10015000000000000000000000000000000000009F
:10016000000000000000000000000000000000008F
:10017000000000000000000000000000000000007F
:10018000000000000000000000000000000000006F
:10019000000000000000000000000000000000005F
:1001A000000000000000000000000000000000004F
:1001B000000000000000000000000000000000003F
:1001C000000000000000000000000000000000002F
:1001D000000000000000000000000000000000001F
:0401E0005FF8E0F1F3
:1001E4000EB400B598B019AB04CB199269468222BB
:1001F40092008A8100900490094A02920592012299
:100204005242CA811793074A1068199A00F00CF8F1
:10021400009A0023137018B008BC03B018470000FC
:10022400FFFFFF7F7C120020F0B55F4656464D4627
:100234004446F0B4AFB002908A461E1C9046002299
:100244000492089200E0099E42461378002B09D0DC
:10025400252B07D0444601342378002B03D0252BCB
:1002640001D0F8E744464346E51A002D07D040463E
:10027400291C524600F02CFB049A521904920023C4
:10028400E356002B00D1FEE20134A04600226B4667
:10029400B7331A700392059201235B42069300E080
:1002A4001E1C4246127812061216934601239844E5
:1002B40000E005915B46203B582B00D930E29B00BF
:1002C400C74A9B589F46C74A08928FE16A46B7328D
:1002D4000023D356002BE4D120231370E1E701233C
:1002E400039A1A430392DCE7331D36680596002E01
:1002F400D6DA724205921E1C0423039A1A4303920F
:10030400CFE72B226B46B7331A70CAE742461378FD
:10031400012290441B061B162A2B06D09B461A1C4E
:10032400303A092A0DD900211AE0331D36680696A1
:10033400002E04DA1E1C01235B420693B1E71E1C47
:10034400AFE700218B005B185B00991842461278D6
:1003540012061216934601239844303A092AF1D919
:1003640000290691A6DA012252420692A2E78023CE
:10037400039A1A43039294E700215B46303B8A00B8
:1003840052185200991843461B781B061B169B46AD
:1003940001229044303B092B8BD8EEE74023039A8B
:1003A4001A4303927DE742460023D3566C2B06D1B1
:1003B400012398441023039A1A43039271E71023EC
:1003C400039A1A4303926CE71023039A1A43039285
:1003D40067E75B46432B02D0039AD20610D500236D
:1003E4000C930D933268029869463F310CAB00F0D0
:1003F40029FC071C431C00D145E20436099606E09B
:10040400321D099232686B463F331A70012700226D
:100414006B46B7331A703F236B4499462DE2102381
:10042400039A1A430392039BDB0603D5321D0992F8
:1004340034680BE0039B5B0605D5321D09923368D3
:100444001B041C1402E0331D09933468002C01DBE7
:100454000121ECE064422D226B46B7331A7001216E
:10046400E5E0039AD20605D5331D09933368049A4F
:100474001A60E8E6039B5B0606D5321D09923368D1
:100484006A46128A1A80DEE6331D09933368049A99
:100494001A60D8E61023039A1A430392039BDB06DF
:1004A40003D5321D0992346809E0039B5B0603D52A
:1004B400321D0992348802E0331D09933468002107
:1004C400B1E0321D099234680223039A1A4303925D
:1004D40078239B460221434A0892A4E0069C00220A
:1004E4006B46B7331A70331D09933668B146002E34
:1004F40000D1BFE15A46532A02D0039BDB0643D501
:100504004D460E9500230A930B93002C18DB00270D
:1005140000250E9B5A59002A1FD0029869463F3184
:100524000AAB00F08FFB421C00D1ACE1C019A04221
:1005340013DC0435844201D1271C0EE0071CE8E7D4
:100544000AAB0093029800210EAA002300F0A0FB3E
:10055400071C431C00D196E10E95002F00D1EEE05C
:1005640000250A950B956C4667340AAB00930298F4
:10057400211C0EAA3B1C00F08BFB874200D082E1B9
:10058400E555A1460795E0E0002C0CDB301C00216A
:10059400221C00F0DFF9002800D1D3E0871BA7421A
:1005A40000DDCFE0CBE0301C00F0EEFA071C64E184
:1005B4001023039A1A430392039BDB0603D5321DCF
:1005C4000992346809E0039B5B0603D5321D099246
:1005D400348802E0331D09933468012123E00000CC
:1005E4008C4F0108AC540108AC4A0892039BDB060B
:1005F40003D5321D0992346809E0039B5B0603D5D9
:10060400321D0992348802E0331D09933468039A39
:10061400D20707D5002C05D00223039A1A4303926C
:10062400022100E0022100226B46B7331A70069BB8
:10063400002B03DB8023039A9A430392002C02D1FC
:10064400069B002B50D0012909D001290CD3022983
:100654003AD0069A0792924B9946192775E0092CCD
:100664001CD86D46673529E067226A449146012308
:100674005B4299440723234030334A461370E4080D
:10068400002CF4D1039AD20743D5302B41D0012357
:100694005B42994430234A4613703AE06D4667350D
:1006A400013D201C0A2100F047FD30312970201C37
:1006B4000A2100F005FD041C0928F1D8013DA946D2
:1006C400231C30332B7024E067236B4499460122AA
:1006D400524291440F232340089A9B5C4A4613706C
:1006E4002409002C15D0F2E7002903D067236B44BA
:1006F40099460EE0039AD20703D467236B449946C4
:1007040007E030216A463F322723D15466226A44E7
:1007140091466B4667334A469F1A069B079314E03B
:100724005A46002A00D1AEE069463F310A700022E1
:100734006B46B7331A700996894601279DE000235A
:10074400079302E0069F002207923E1C079B9F42EC
:1007540000DA1E1C6B46B7331B781B061B16002BD6
:1007640001D0013603E0039A920700D502368423B0
:10077400039D1D4012D1059B9C1B002C0EDD102CEB
:1007840007DD48481021524600F0A2F8103C102C16
:10079400F7DC4448211C524600F09AF86846B7300A
:1007A4000023C356002B04D00121524600F090F8D8
:1007B4000CE0039A920709D568463D303023037054
:1007C4005B4643700221524600F082F8802D16D118
:1007D400059A941B002C12DD102C0ADD314B1D1CD4
:1007E4001035281C1021524600F072F8103C102CD1
:1007F400F7DC2C481030211C524600F069F8079BA6
:10080400DC1B002C12DD102C0ADD264B1D1C1035C0
:10081400281C1021524600F05BF8103C102CF7DC29
:1008240020481030211C524600F052F84846391C2A
:10083400524600F04DF8039A520712D5059B9C1BB3
:10084400002C0EDD102C07DD16481021524600F056
:100854003FF8103C102CF7DC1248211C524600F0E3
:1008640037F8331C059A964200DA131C049AD218FE
:100874000492E8E40C4B994606273E1E00DA002653
:10088400002207926FE704982FB03CBC904699462B
:10089400A246AB46F0BC02BC08470000C0540108A5
:1008A400D4540108F0500108F054010830B581B067
:1008B400041C0D1C131C054A1068211C2A1CFFF77C
:1008C400B3FC01B030BC02BC084700007C1200201D
:1008D40070B5051C0C1C101C002A03D00E22835E6C
:1008E400013302D0002C14D11CE0828982239B00A6
:1008F4001A42F7D00668002909D0311C221C2B7833
:100904000B7001310135013A002AF8D1361906601D
:1009140008E028780135000600160BF081FB013C45
:10092400002CF6D170BC01BC0047000030B581B08A
:10093400041C00F029F9051C201C291C0022FFF7C7
:10094400C7FF0A200BF06CFB281C01B030BC02BCB2
:100954000847C046032A844630B4C9B2144627D98E
:100964001CF0030325D11D461A462B0201325D18E3
:10097400042AFAD16046036885EA0303A3F101322D
:10098400DB431A4012F0803F0ED003788B421ED016
:100994004378421C8B421BD08378821C8B4217D035
:1009A400C378C21C8B4213D0043C0430032CE2D81D
:1009B4005CB103788B4206D0621E32B110F8013F5D
:1009C400013A8B42F9D130BC70470020FBE7024664
:1009D4001046F8E770B414460F2C06460D4604D9A9
:1009E40045EA060313F0030F0DD04AB14FF0000C93
:1009F40011F80C3000F80C300CF1010C9445F7D1CF
:100A0400304670BC7047A4460B68ACF1100C036010
:100A14004A6842608B688360CA681031C2601030D3
:100A2400BCF10F0FF0D8A4F1100303F00F0223F070
:100A34000F031033EC18F118032A13D94FF0000CEC
:100A440054F80C3041F80C300CF1040CCCEB0203DC
:100A5400032BF5D8131F03F0030223F0030304331D
:100A6400E418C91808462146BFE7C046032A84464D
:100A740030B40446CDB231D910F0030F2FD145EA7A
:100A840005230F2A88BF944643EA034188BF2346BF
:100A940012D9ACF1100C196059609960D960103307
:100AA400BCF10F0FF5D8103A22F00F0302F00F0239
:100AB4001033E018032A10D94FF0000C40F80C1042
:100AC4000CF1040CCCEB0203032BF7D8131F03F037
:100AD400030223F003030433C018844632B1E9B29D
:100AE40000230CF8031001339A42FAD1204630BC9B
:100AF4007047C04641EA0003024613F0030F04D1D5
:100B040002680B689A4212D00246107820B917E0A6
:100B140012F8010F013198B10B788342F8D0C01A52
:100B2400704750F8042F51F8043F9A42ECD1A2F1D7
:100B34000133D243134013F0803FF2D00020EFE79B
:100B44000B78ECE741EA0003844613F0030F10B47A
:100B540018BF04460FD104460846096803E044F868
:100B6400041B50F8041FCB43A1F10132134013F0CE
:100B7400803FF4D0014600228B5CA3540132002B49
:100B8400FAD1604610BC704710F0030F014618BF3D
:100B940000460BD108460B6801E050F8043FA3F16E
:100BA4000132DB431A4012F0803FF6D003781BB1C8
:100BB40010F8013F002BFBD1401A704770B4044673
:100BC4001046F2B141EA040313F0030F1ED1032AC5
:100BD40025460E4618D922680B689A420FD013E0B6
:100BE400A2F10133D243134013F0803F09D10435FD
:100BF400043603281DD92A6833689A4204D104387C
:100C0400EED1002070BC70472C463146421E23783A
:100C14000878984213D1002AF3D00028F1D014F8B0
:100C2400013F11F8010F984209D112F1FF32F4D1BA
:100C3400E7E72C4631460028E8D12B783078181A9B
:100C4400E0E7C04630B5054685B01C468E4651B136
:100C540000F096F8B0F1FF3F03D100238A2223600D
:100C64002A6005B030BD0DF10601724600F088F827
:100C7400F0E7C046134641F27C22C2F2000270B58E
:100C840004460D46106821462A46FFF7DBFF70BD77
:100C94002DE9F04F89B0984602900092129F01917D
:100CA400002952D01368B8F1000F54D003930025E3
:100CB400019C2E460DF1160B039B59460298D7F85A
:100CC40000A09A593B46D7F80490FFF7BBFFB0F158
:100CD400FF3F2BD0C0EB080240458CBF002301230B
:100CE400AA4234BF002303F00103BBB1019B2D18BA
:100CF4006BB1002807DD00221BF80230A354013237
:100D04009042F9DC2418009A136804331360039AA0
:100D1400935993B104364545CED303E0C7F800A0F8
:100D2400C7F80490284609B0BDE8F08F029A8A23D8
:100D34000546136000223A60F4E7019A0AB1009A6A
:100D440013600023013D3B60ECE7009B4FF0FF384C
:100D54001B680393ABE74546E4E7C04670B5164607
:100D640041F27C2282B0C2F2000204460D462146C2
:100D740010682A4600933346FFF78AFF02B070BD1D
:100D840041F2743070B5C2F200000C4615461E469E
:100D9400FFF7FAFE012824D941F2743045F2FC41F0
:100DA400C2F20000C0F60101FFF7A4FEF0B9002C66
:100DB40044D07F2D3FD9A5F18003B3F5F06F3FD226
:100DC40005F4F86305F03F0202209B096FEA4262D2
:100DD4006FEA83636FEA526262706FEA936323700F
:100DE40003E0002C2AD00120257070BD41F274303C
:100DF40045F20451C2F20000C0F60101FFF77AFE89
:100E0400002840F09180CCB12B0AD9B20029EAD055
:100E140001F1200301F17F02DBB2D2B20F2B8CBFB0
:100E2400002301231E2A98BF43F00103002B67D13E
:100E34004FF0FF30D9E725700130D6E70020D4E722
:100E4400A5F50063B3F5784FC0F0BB80A5F58033FA
:100E5400B3F5F81F22D205F4E01205F47C332146E1
:100E64000420920C1B0B6FEA02726FEA43636FEA71
:100E7400127201F8012B05F47C626FEA536363700C
:100E840005F03F0392096FEA43636FEA42626FEA37
:100E940053638B706FEA52624A70A6E7A5F500139C
:100EA400B3F1787F80F0B08005F0407205F47C03E4
:100EB4002146120E9B0C6FEA42726FEA43636FEA9B
:100EC40052726FEA536301F8012B05F47C6263707C
:100ED40005F47C339209481C1B0B6FEA42626FEAEB
:100EE40043636FEA52626FEA53634B7005F03F034A
:100EF40042706FEA43636FEA53638370052074E7BB
:100F0400E8B2A0F1400280F080037C2B8CBF002368
:100F14000123D2B23E2A98BF43F00103002B87D0AD
:100F240060700220217060E741F2743045F20C5188
:100F3400C2F20000C0F60101FFF7DCFDC0B9002CCD
:100F44003FF47CAF2B0AD9B200293FF44CAF01F136
:100F54005F03DBB25D2B3FF66BAFEAB202F15F03D6
:100F6400DBB25D2B3FF664AF2170023062703CE768
:100F740041F2743045F21451C2F20000C0F601018E
:100F8400FFF7B8FD00287FF42CAF002C3AD02B0AD1
:100F94005FFA85FEDDB2002D71D133686BB1214655
:100FA40035601B23282201F8013B042062708C1C4D
:100FB40027334B7084F800E017E7012084F800E041
:100FC40013E7A5F55843B3F5006FFFF431AF05F40B
:100FD4007042214605F47C630320120B9B096FEADF
:100FE400C2626FEA43636FEAD26201F8012B05F033
:100FF4003F026FEA536363706FEA42626FEA5262C0
:101004004A70F2E60130F0E605F17C43B3F1F84FA3
:10101400BFF40EAF05F0804205F07C532146920FD9
:101024001B0E6FEA82726FEA43636FEA92726FEA91
:10103400536301F8012B05F47C62637005F47C03AF
:10104400481C92099B0C441C6FEA42626FEA43639A
:101054006FEA52626FEA53634B7005F47C331B0BE7
:101064006FEA43636FEA5363437005F03F036270B2
:1010740006206FEA43636FEA5363A370B5E6A5F1F4
:101084002103DBB25D2B3FF6D3AEAEF12103DBB21D
:101094005D2B3FF6CDAE33687BB921460123242274
:1010A400336005201A3301F8013B273362708C1C2E
:1010B4004B70257084F801E097E60220F9E7C046FA
:1010C400002934D00123002210B488422CD30124F7
:1010D4002407A14204D2814202D209011B01F8E78C
:1010E400E400A14204D2814202D249005B00F8E745
:1010F400884201D3401A1A434C08A04202D3001B71
:101104005C0822438C08A04202D3001B9C082243A3
:10111400CC08A04202D3001BDC082243002803D0E1
:101124001B0901D00909E3E7101C10BC704708B182
:101134004FF0FF3000F00AB80029F8D003B5FFF7EC
:10114400C1FF0EBC4243891A1847C0467047C046C7
:10115400044B1B68C018044B1860024B1B68984270
:10116400FBD870478013002090B10020024A136816
:101174000A3313607047C0468013002010B5044C36
:10118400206800F015F8206800F000F910BDC04692
:101194008013002010B500F067FB00F031F900F077
:1011A400D9FC00F09FFD00F0B9FFFFF7E7FFFCE773
:1011B40070B5654E8EB00390039B32689B1AF92B71
:1011C40040F2C080039B614D33606A687368934248
:1011D40000F08480130E8DF83430C2F307438DF889
:1011E4003530C2F307238DF83630D3B28DF837305B
:1011F40072609DF837209DF836309DF835109DF8C3
:10120400340005AC0091019051492046FEF7E8FFF7
:1012140095F82E3013F0080F53D0A8204D490AF04A
:1012240071F8C0204C490AF06DF82146D8200AF024
:1012340069F840F6B830FFF78BFF00200AF078F821
:10124400002009F0B1FE4FF6FF7009F0A1FE7268AC
:10125400130E8DF83430C2F307438DF83530C2F3E2
:101264000723D2B28DF836308DF837209DF8372019
:101274009DF836309DF835109DF8340000910190AA
:1012840036492046FEF7ACFF002035490AF03AF80B
:10129400302021460AF036F8337A33B11820314928
:1012A4000AF030F800F028FF4CE02F4918200AF02B
:1012B40029F80AF0C3FD01200AF03AFD00F020FCF1
:1012C40040E0C02029490AF01DF8D82021460AF040
:1012D40019F840F6B830FFF73BFF33E0002B31D16B
:1012E400602023490AF00EF8782022490AF00AF80F
:1012F400902021490AF006F8204A107800F00300F3
:10130400431C137009F0BAFD2B6A5B78042B19D9BE
:101314001B49A82009F0F6FF284603F003F91948F1
:1013240006F0B2F90C906FF0FF0006F0ADF90B90E7
:10133400154806F0A9F90CA90A900BAA28460AAB8D
:1013440004F092F80EB070BD8413002094B1002014
:101354001051010823510108385101084D51010869
:101364005E51010873510108885101089D5101081B
:10137400B4510108C9510108DE51010800000020E0
:10138400F35101080800A8C00100A8C007B5174917
:101394000190019BCA689B1AF92B03D9019BCB606E
:1013A40004F0FEFE1149019B0A699B1A41F287323F
:1013B400934203D9019B0B6107F0A8F90B49019BE8
:1013C4004A699B1AB3F5FA7F03D3019B4B6103F07F
:1013D40001FE0649019B8A699B1A4EF65F229342DD
:1013E40003D9019B8B6103F0DDFA0EBD8413002049
:1013F40010B5024805F0D6FF10BDC04694B10020D8
:1014040010B58AB006222D490DF11600FFF7E2FA55
:10141400002403F027FE03F055FF7820284909949F
:101424000894079409F06EFF9020264909F06AFF9A
:101434002549A82009F066FF40F6B830FFF788FE7A
:10144400022009F047FD214A40B9012378302049A0
:10145400137209F057FF90201E4909E002237820F7
:101464001B4914728DF81B3009F04CFF1A49902067
:1014740009F048FF1649A82009F044FF40F6B830A7
:10148400FFF766FE0DF1160005F0CAFF0023009376
:10149400124B09A90193124B08AA0293114807ABF6
:1014A40003F0F2FF0F4803F073FF0E4803F080FBD4
:1014B4000C4803F083FF0AB010BDC04674C0000896
:1014C400085201081D5201083252010884130020F9
:1014D400475201085C5201087152010895720008D4
:1014E4009189000894B100207047C046FEE7C046C9
:1014F400FEE7C046FEE7C046FEE7C0467047C0466A
:101504007047C0467047C04610B54FF4804001F0A4
:1015140013FC002868D0822007210AF0C3F910F0D8
:10152400070F55D00AF090FB304B18600388002B4E
:101534003FD08388DB2B3CD8B42B3AD94088A0F128
:101544000B039BB23A2B08D89020294909F0DAFE04
:10155400032009F07BFC03200CE0A0F15B039BB2A9
:101564003A2B0AD89020234909F0CCFE022009F036
:101574006DFC022000F030FA27E0A0F1AB039BB22F
:101584003A2B08D890201C4909F0BCFE012009F030
:101594005DFC0120EEE7A0F1FB039BB23A2B14D8CB
:1015A4009020164909F0AEFE002009F04FFC0020FF
:1015B400E0E7002009F056FC012009F053FC02206A
:1015C40009F050FC032009F04DFC8220072105E0BE
:1015D400FF2182200AF030FB8820FF210AF02CFB37
:1015E4004FF4804001F0B6FB10BDC046A0130020AC
:1015F400865201089B520108B0520108C5520108E5
:1016040010B501E0FFF7F4FE01F090FD0028F9D1D8
:10161400403001F0BBFD4FF4803001F0B7FD10BD48
:1016240010B5FFF7A3FD10BD00284FEA011106DA3B
:10163400064A00F00F03C9B29A18117604E0044B6D
:10164400CAB2C31883F800237047C046FCEC00E01C
:1016540000E100E007B500214FF0006001F09CFAC2
:101664004FF4A06001F060FA3D238DF804300223AA
:101674008DF8053000238DF8063001A801338DF86C
:10168400073001F05BFA0EBD30B5114C87B0002273
:1016940001254FF46023204601A901928DF808200A
:1016A400039304928DF809508DF8145001F07EFADA
:1016B40020460E212A46022301F0B0FA204629468C
:1016C40001F098FA2046294601F09EFA07B030BD91
:1016D400002401402DE9734F0426DFF8F8B00DEB28
:1016E4000604DFF8F48003254FF0180A5846214613
:1016F400DFF8E890ADF804608DF806508DF807A087
:1017040001F02EFB4FF0060340462146ADF80430AD
:101714008DF806508DF807A001F022FB43F6201344
:1017240048462146ADF804308DF806508DF807A0E0
:1017340001F016FB01214FF0201001F075FB4FF072
:101744000B0358462146ADF804308DF806508DF849
:10175400076001F005FB4FF4806348462146ADF86D
:1017640004308DF806508DF8076001F0F9FA4FF057
:10177400080340462146ADF804308DF806508DF834
:10178400076001F0EDFA4FF4F85321461048ADF824
:1017940004308DF806508DF8076001F0E1FA4FF03F
:1017A4001003ADF804304046002321468DF807307D
:1017B40001F0D6FA4FF4807358462146ADF8043050
:1017C4008DF806508DF807A001F0CAFABDE87C8FA9
:1017D400001401400008014000100140000C0140C9
:1017E40030B50020B1B001F067FB062001F0D0F85D
:1017F40001F04AFE01F0BAFC01F0C0FC0128FBD064
:1018040001AD284601F05EFB002308930C930F936F
:1018140012931493159316932193269327930433C9
:1018240029934FF480332B9303F57C1301244FF059
:1018340000712C934FF400724FF400530B922291D9
:101844004FF400122A912D932146DB182846019467
:1018540024922F9301F0F4FC0248214601F0D4FCB9
:1018640031B030BD4000010010B586B009F034FA43
:1018740001214FF4003001F053F801214FF4E0301E
:1018840001F032F8012140F27D2001F03BF8FFF72E
:10189400E1FEFFF7F9FEFFF71DFF09F065FE0020EA
:1018A40009F0FAFA012009F0F7FA022009F0F4FA33
:1018B400032009F0F1FA002009F0C8FA012009F028
:1018C400C5FA022009F0C2FA032009F0BFFA1F206A
:1018D40009F02EFD1F2009F067FB4FF6FF7009F099
:1018E40057FB0020194909F00DFD1820184909F08B
:1018F40009FD3020174909F005FD4820164909F073
:1019040001FDFFF76DFF01A800F088FF019B642231
:10191400B3FBF2F3B3F1807F0DD2104C23F07F437D
:10192400013B63604FF0FF300F21FFF77DFE002382
:10193400A3600733236001214FF0FF30FFF774FEEB
:101944000220002109F0D6FA06B010BDDA520108CF
:10195400EF520108045301081953010810E000E094
:1019640040787047002303704170704700238370F0
:10197400C170704710B50430FFF72CF810BDC04695
:1019840010B50446084605F075FE608010BDC046DB
:1019940010B50430FFF7D6F810BDC04610B50231BB
:1019A400FFF7D0F810BDC04610B5408805F068FEBA
:1019B40010BDC04670B504460D46FFF7D1FF04289C
:1019C40001D0002006E02046FFF7EEFF854214BF59
:1019D4000020012070BDC04613B5064C02A90122A7
:1019E40001F8010D1346206802F076FA206801F030
:1019F40087FE1CBDA413002010B578200C4617499F
:101A040009F080FC1F2009F0C3FA28223C23B420EB
:101A14004FF49B7109F018FC4FF4784009F0B8FAC0
:101A2400E62128223C23B42009F00EFC4FF6E07096
:101A340009F0AEFA962128223C23B42009F004FCD4
:101A44004FF4FC6009F0A4FAB4203C234621282278
:101A540009F0FAFB024B00201C6010BD2E53010854
:101A6400A413002070B51D4616461B786A7888B00A
:101A740043EA0223AA7802AC43EA0243EA7843EA3F
:101A840002631A0E8DF81C20C3F307428DF81D2043
:101A9400C3F30722DBB28DF81E208DF81F309DF8AA
:101AA4001F209DF81E309DF81D109DF81C0000910C
:101AB40001900F492046FEF793FB48200D4909F099
:101AC40021FC2146602009F01DFC04F04BFA04229D
:101AD4000446094903F03AFF204629460422074BED
:101AE40004F0FEF8304603F0D1FD08B070BDC046E6
:101AF4004353010858530108583D0108FD190008D3
:101B040070B502F093FA07220F49044602F044FA32
:101B140000200246014603F005FE054629462046FC
:101B240002F026FB204602F067FA04222046074909
:101B340002F0F8F920460649002202F073FA28461A
:101B440003F0A4FD70BDC0465C3D0108583D01088A
:101B5400691A000810B504F005FA1722044605496D
:101B640003F0F4FEFF21204604F06EF8024903F06E
:101B740093FF10BD583D0108811B000810B52420B7
:101B84000C46012103F090FB0146204603F076FF4A
:101B94002046074903F07CFF2046064903F070FF06
:101BA400204605491B22012302F096F9002010BDAE
:101BB400C11B0008C91B00086D53010810B503F0D0
:101BC4006FFA10BD2DE9F04104460F461646002A6F
:101BD40062D00846118903F083FF24B9304603F02C
:101BE40055FDF62061E035460020D5F804C00021FB
:101BF40014E01CF801E04FFA8EF30D2B01D1012003
:101C040003E00A2B14BF0020012022681F2A04DCF1
:101C1400A31883F804E0531C236001316B899942B3
:101C240001DA0028E5D02D68002DDED100282ED061
:101C34002268A11891F902300D2B03D191F90330D8
:101C44000A2B16D0A31893F903300D2B01D00A2BBD
:101C540003D11F2A05DC531C04E01E2A01DC931C5B
:101C640000E02023236023680D22E3189A700A22DF
:101C7400DA700F4906220123384602F02DF90123B8
:101C84003846211D228802F027F9002323603046BC
:101C940003F0FCFC002008E00BB1104605E003F063
:101CA400FFF9384604F08CFAC0B240B2BDE8F081C6
:101CB4008953010870B506460D46094C0BE03046C1
:101CC4006168FEF717FF28B9A36801302B60E36849
:101CD4006B6003E02468002CF1D1204670BDC0463F
:101CE4007CC0000810B504F03DF9502204460549B3
:101CF40003F02CFEFF21204603F0A6FF024903F067
:101D0400CBFE10BD583D0108111D000870B5082018
:101D14000D4603F073FA014608B9FF2412E00024CB
:101D240004604460284603F0A9FE2846064903F0EF
:101D3400A7FE2846054903F0ABFE284604490A22BB
:101D440003F0ACFE60B270BDF51D0008A51D0008CF
:101D5400891D00084B6870B5B0F86E500C469D4262
:101D640028BF9DB2096800232A4602F0B5F810F096
:101D7400FF0F05D123685B19236063685B1B6360F5
:101D840070BDC04610B5034618B9084604F018FAE9
:101D940003E008461946FFF7DDFF002010BDC046EA
:101DA40010B503F07DF910BD70B504460D46002151
:101DB40003F064FE2046002103F066FE2046002165
:101DC40003F05EFE284603F06BF9204604F0F8F9B0
:101DD40070BDC0460246536810B508461BB1114693
:101DE400FFF7B8FF02E01146FFF7DEFF002010BD49
:101DF4002DE9F04317468DB06B4A0AAD80468946FB
:101E040092E8030085E80300002B40F0C380002F14
:101E140000F0C4804846398903F062FED8F80030E7
:101E2400002B40F0B4807E68604930461122FEF7F2
:101E3400C5FE38BB384603F029FC5D4800F03CFF82
:101E44006422C01090FBF2F2D2B253B26FF063047A
:101E54005C430A21231893FBF1F35649DBB2303279
:101E640081F8A32B303003F1300281F8A42B001940
:101E74005BB26FF0090202FB03034F4881F8A53BF4
:101E8400294673E030464D490F22FEF797FE00289D
:101E940041D108F0E7FF012008F0E4FF022008F038
:101EA400E1FF032008F0DEFF0F2429E012F9013FCF
:101EB40001346C2B25D101343357652B20D10134E7
:101EC4003357642B1CD1023433573519312B02D1CB
:101ED400002008F0BBFF95F90030322B02D101201D
:101EE40008F0B4FF95F90030332B02D1022008F03A
:101EF400ADFF95F90030342B02D1032008F0A6FF82
:101F0400321992F90030202BD0D1384603F0BEFBB1
:101F14002B480AA92AE030462A490422FEF74EFE3D
:101F240000283BD1324692F90430202B03D00D2BEC
:101F340001D00A2B01D100231371013206F12803C9
:101F44009A42F0D1002173181A790DF8012012B1C8
:101F540001312829F7D138460AAC03F097FB6846CB
:101F64002146FFF7A7FE18B917482146FFF7A2FE3E
:101F74000A9B4846C8F800300B9B4146C8F8043019
:101F8400FFF7E8FE4846114903F07EFD02E03846BB
:101F940003F07CFB00200DB0BDE8F08348464146C9
:101FA400FFF702FFF6E7C0468CC000089053010813
:101FB4000024014004000020A2530108B553010885
:101FC400C5530108D8530108DD530108D91D000881
:101FD400084610B5024903F053FD002010BDC04669
:101FE400E91F000810B55368144693F90030032B19
:101FF4000CD8DFE803F002040608002004E0012006
:1020040002E0022000E0032008F038FF204603F03D
:102014003DFB002010BDC046F0B51E4617461B7898
:10202400727889B043EA0223B2780D4643EA024348
:10203400F27802AC43EA02631A0E8DF81C20C3F353
:1020440007428DF81D20C3F30722DBB28DF81E2052
:102054008DF81F309DF81F209DF81E309DF81D102F
:102064009DF81C00009101901E492046FEF7B8F827
:1020740060201D4909F046F92146782009F042F90B
:1020840004223146284601F087FF3946284602F0EB
:102094006FF8284601F0B0FF14490722284601F0E2
:1020A40041FF28461249002201F0BCFF03F05AFF09
:1020B400044690B10422314603F048FC40B210F1CA
:1020C4000B0F07D0FF21204603F0BEFD094903F0A2
:1020D400E3FC02E0204604F073F8384603F0D6FA35
:1020E40009B0F0BD4353010817540108583D0108D5
:1020F4001D200008D51F000810B501F097FF072226
:102104000446044901F00EFF20460349002201F071
:1021140089FF10BD583D01081D20000810B501F0CD
:1021240085FF074C206048B14522064901F0FAFEBC
:10213400C2B21AB92068044901F074FF10BDC04648
:10214400C8B10020583D01086926000870B505464D
:102154000B480C4607F0A8FA0A4807F017FE204679
:1021640002F09EFF284601F047FF284601F06EFF6B
:10217400054B06491868002201F054FF70BDC046A3
:1021840004B5002090B40020C8B1002069260008DE
:1021940070B505460B480C4607F086FA0A4807F066
:1021A400F5FD204602F07CFF284601F025FF284675
:1021B40001F04CFF054B06491868002201F032FF7C
:1021C40070BDC046CCB10020FCB70020C8B10020CF
:1021D4006926000870B50D4604460521084EFFF730
:1021E400C1FB20462946FFF7C1FB204656F82510BF
:1021F400FFF7CEFB56F82500FEF7C6FC053070BD90
:10220400101200202DE9F047089E074688469146A3
:102214000020B1B203221D4603F084FA044608B933
:10222400FF250FE0294632464068FEF7D3FB3846C7
:10223400214642461FFA89F301F084FFC5B22046C5
:1022440003F024FA68B2BDE8F087C0462DE97F4365
:1022540003AC1D4606468846204604219146FFF7F6
:1022640081FB2046A9B2FFF78BFB04230093304681
:1022740041464A462346FFF7C5FF40B204B0BDE8D5
:102284007083C0462DE97047ADF5057D03AD1E464C
:102294008D9C80468946284603219246FFF762FBBF
:1022A4002846B1B2FFF76CFB28468C992246FFF70B
:1022B40061FB04344046494652462B460094FFF7DE
:1022C400A1FF40B20DF5057DBDE870872DE973438C
:1022D4000D1D0C46814616464FF400712A460848E7
:1022E400984607F04DFC3146C4F808020190424676
:1022F4004846D4F814320095FFF7C4FFBDE87C8348
:10230400CCB100202DE9F04104460E465068D4F8C3
:10231400141215461F46BDF81880FFF74BFB20B179
:10232400D4F814320133C4F81432D4F80832B3F5B3
:10233400007F06DA30462146FFF72AFF284603F0DD
:10234400A5F9304621463A464346FFF7BFFF2846E3
:1023540003F09CF9BDE8F0812DE97041ADF5037DF2
:1023640002AC05460E46204619469046FFF732FF5A
:1023740031460090424628462346FFF743FF40B2C9
:102384000DF5037DBDE870812DE9F04107460D464A
:10239400904622481A462249772307F0BBF9C6B271
:1023A40046B12946384642460623FFF7D5FF38464C
:1023B40000210DE04FF40A7002F020FF044650B9EA
:1023C4002946384642462346FFF7C6FF384621468B
:1023D400FFF7BCFE1FE0022303606A782B781149E3
:1023E40043EA0223AA7843EA0243EA78C0F8108257
:1023F40043EA0263C0F80C32C0F81462C0F81862F1
:102404002246384601F00EFE384629464246D4F8A4
:102414001432FFF71BFF0020BDE8F08104B5002053
:1024240090B400202D2400082DE9F04115461F46E4
:102434005389128904469A420E46BDF8188045D144
:10244400042A27D96868FFF7AFFAD4F814320133A5
:1024540098421FD169896A68043904321C4807F01C
:1024640011FB002809DC3946304642460123FFF7B8
:1024740073FF30462146FFF769FED4F814326A89A7
:102484000133C4F81432D4F81832043B9B18C4F84E
:10249400183209E06868FFF787FAD4F81432013378
:1024A400984208BFC4F81402D4F8143230463946AE
:1024B4004246FFF7CBFE6B89B3F5017F03D230466A
:1024C4002146FFF743FE284603F0E0F8BDE8F0811B
:1024D40004B500202DE9F04707460E461446264869
:1024E4001A462649722307F015F95FFA80F9B9F103
:1024F400000F0BD03146224601233846FFF72CFF4C
:1025040038460021FFF744FE002033E04FF40A7000
:1025140002F074FE054658B9314622462B46384629
:10252400FFF71AFF38462946FFF732FE284621E016
:102534004FF00108C0F8008072783378104943EAFC
:102544000223B27843EA0243F278C0F8104243EA25
:102554000263C0F80C32C0F81482C0F818922A46FC
:10256400384601F05FFD384629463246A3B2FFF7EC
:10257400ADFE4046BDE8F087CCB10020FCB700209A
:10258400092300082DE9F043054689B040688846D0
:102594009146FFF7E5F9064601F048FD0746002895
:1025A4004CD02849002201F0BDFCC4B2002C45D116
:1025B400012E02D0022E38D11BE00DF10206304666
:1025C4006968FFF7EBF92048214606F043FC10F058
:1025D400FF0F33D11D481E491E4A08F0BFF810F002
:1025E400FF0F2BD1384641464A463346FFF772FF68
:1025F40024E00DF1020630466968FFF7CFF916486A
:10260400214606F027FC10F0FF0F17D11348144998
:10261400104A08F0A3F810F0FF0F0FD138464146D6
:102624004A463346FFF7B0FE08E0384641464A467C
:102634000223FFF791FE384601F008FD09B0BDE81A
:10264400F083C046583D010888B5002054B50020E9
:10265400FCB700202B5401081CB20020D0B4002089
:1026640090B4002010B5104614461946BDF8082051
:10267400FFF788FF204603F009F810BD21B1038855
:102684009BB243F0010304E0038823F001031B041D
:102694001B0C03807047C04621B103889BB243F4EE
:1026A400807304E0038823F480731B041B0C0380F1
:1026B4007047C04621B103889BB243F4007304E021
:1026C400038823F400731B041B0C03807047C0466B
:1026D40021B103889BB243F4806304E0038823F4AC
:1026E40080631B041B0C03807047C0460182704743
:1026F400008AC0B27047C04612B141F0010101E046
:1027040001F0FE010182704731B103886FEA43434F
:102714006FEA53439BB202E003885B045B0C0380C3
:102724007047C0460346808A1B8B80B240EA034050
:1027340020F07F40884214BF002001207047C0462B
:1027440070B586B00546848801A80E4600F066F888
:102754000398304B24F03F042404B0FBF3F3240C1F
:102764001FFA83FE4EEA0404AC802B88316823F000
:1027740001031B041B0C2B80274B99420CD84A00E5
:10278400B0FBF2F20EF1010392B29BB22B84032A46
:102794008CBF1146042123E0F2884BF6FF739A4262
:1027A40005D103234B43B0FBF3F39AB206E019239C
:1027B4004B43B0FBF3F39BB243F4804213051B0D70
:1027C4000BB942F001024FF4967303FB0EF342F48B
:1027D40000414FF47A7293FBF2F301339BB22B84E2
:1027E400A9832B889BB243F001032B802B88728929
:1027F40023F48063B18823F00A031B040A431B0CEF
:1028040013439BB22B803389B28913439BB22B8130
:1028140006B070BD40420F00A08601002D4A10B5DD
:102824005368044603F00C03042B02D0082B30D168
:1028340001E0294B2EE053685268C3F383430D2B08
:1028440001D1062000E0981C12F4803F01D1234BF3
:102854000CE02049CA6ACB6A12F4803F03F00F03EC
:1028640003F1010C04D11C4BB3FBFCF3434311E013
:10287400CB6ACA6AC3F3031317490133C2F30322B1
:10288400B1FBF3F102324A43B2FBFCF24243226051
:1028940001E0134B23600F48124943682268C3F3D5
:1028A4000313CB5CDA4062604368C3F30223CB5C5E
:1028B40032FA03F3A3604368C3F3C223CB5CDA4068
:1028C400E2604368C3F38133C9180B7CB2FBF3F2B3
:1028D400226110BD0010024040787D0100093D00D6
:1028E40000127A003012002021B1054A536940EAEF
:1028F400030303E0024A536923EA00035361704768
:102904000010024021B1054A936940EA030303E041
:10291400024A936923EA000393617047001002405E
:1029240021B1054AD36940EA030303E0024AD369AB
:1029340023EA0003D36170470010024021B1054A25
:10294400936A40EA030303E0024A936A23EA00031A
:10295400936270470010024021B1054AD36840EAEF
:10296400030303E0024AD36823EA0003D3607047F9
:102974000010024021B1054A136940EA030303E051
:10298400024A136923EA00031361704700100240EE
:10299400014B18707047C046071002400A884B88E4
:1029A40010B513438A8804881343CA8804F4415435
:1029B40013430A8913434A8913438A891343CA89EF
:1029C40013431C43A4B20480838B23F400631B04CD
:1029D4001B0C83830B8A038210BDC04621B103887C
:1029E4009BB243F0400304E0038823F040031B043C
:1029F4001B0C03807047C04681817047808980B278
:102A04007047C046038919420CBF0020012070475B
:102A1400134B10B598420AD101214FF48050FFF7AF
:102A24009BFF4FF480500021FFF796FF17E00D4BFA
:102A3400984207D14FF480400121FFF79BFF4FF4E8
:102A4400804009E0084B984209D14FF4004001212D
:102A5400FFF790FF4FF400400021FFF78BFF10BDFC
:102A64000030014000380040003C004021B183891F
:102A74009BB243F4005304E0838923F400531B0402
:102A84001B0C83817047C046C905C90D81807047FE
:102A9400038819420CBF002001207047038ACA88AA
:102AA40023F440531B041B0C1343038282890B89B8
:102AB40030B50D46898822F4B0520B43698922F05F
:102AC4000C020B431204120C9BB213438381838ABE
:102AD400AA8923F440731B041B0C134387B00446D8
:102AE400838201A8FFF79AFE0E4B9C420CBF049B05
:102AF400039B19225A432B6864209B00B2FBF3F218
:102B0400B2FBF0F109010B0900FB13231B01323363
:102B1400B3FBF0F303F00F030B439BB2238107B025
:102B240030BDC0460038014040F0BE60024B40F466
:102B34002020D8607047C04600ED00E0C37890F8CC
:102B440000C0D3B1124B4178DA68D243C2F30222F7
:102B5400C2F1040399400F23D340827813400B43FE
:102B64000C4A1B01DBB2624482F800330CF01F02F2
:102B740001234FEA5C11934006E00CF01F0201238D
:102B840093404FEA5C112031024A42F821307047E9
:102B940000ED00E000E100E021F0604121F07F0160
:102BA400014B01439960704700ED00E043680A68F7
:102BB40023F4702323F4807313430A7910B543EA92
:102BC40002234360CB688A6884681A43084B04EA8A
:102BD40003031A434B7942EA430282600B7CC26AC4
:102BE400013B22F47002DBB242EA0352C26210BD1E
:102BF400FDF7F1FF19B1836843F0010302E0836834
:102C040023F001038360704719B1836843F4A00380
:102C140002E0836823F4A00383607047092930B578
:102C240094460C461D460CD90322624307231E3AE0
:102C3400934015FA02F2C16821EA03011143C1600D
:102C44000AE0032262430723934015FA02F2016962
:102C540021EA030111430161BCF1060F0DD80522DD
:102C640002FB0CF21F23053A934014FA02F2416B63
:102C740021EA0301114341631DE0BCF10C0F0DD89F
:102C8400052202FB0CF21F23233A934014FA02F2AA
:102C9400016B21EA0301114301630CE0052202FBED
:102CA4000CF21F23413A934014FA02F2C16A21EA5A
:102CB40003011143C16230BDC06C80B27047C0468D
:102CC400837910B590F804C004684BB31949E24302
:102CD4000B6802EA03030B604B681A404A600CF16C
:102CE400804202F5823213682343136004688B68C0
:102CF400E24302EA03038B60CB6840791A40102850
:102D0400CA6006D18B6823438B60CB682343CB60B6
:102D14000EE000F1804202F582321368234306E09C
:102D24000CF1804202F58232136823EA0403136033
:102D340010BDC04600040140054B1A685B6903409E
:102D440001D1184603E010420CBF00200120704757
:102D540000040140014B58617047C0460004014023
:102D6400F0B5CD780E8815F0100F18BF8B7805F0EC
:102D74000F0718BF1F4316F0FF0F20D004684FF051
:102D8400000C012303FA0CF303EA0601994210D163
:102D94004FEA8C020F23934017FA02F224EA03034A
:102DA400282D43EA020401D1416102E0482D08BF05
:102DB40001610CF1010CBCF1080FE2D10460FF2E9B
:102DC40021D944684FF0000C01230CF10802934010
:102DD40003EA0601994210D14FEA8C020F23934073
:102DE40017FA02F224EA0303282D43EA020401D16C
:102DF400416102E0482D08BF01610CF1010CBCF1F6
:102E0400080FE1D14460F0BD836819420CBF002073
:102E14000120704701617047416170470AB1016147
:102E240000E041617047C04630B500F44013154CD2
:102E34004FEA004CB3F5401F0D464FEA1C4C616845
:102E440006D1636821F0706223F0706363600FE061
:102E540010F4801F04D0C0F303420323934003E023
:102E6400430D1B010CFA03F321EA030343F07062E0
:102E740025B1430D1B010CFA03F31A43014B5A60AD
:102E840030BDC0460000014030B501F00305AD007F
:102E94000F23AB40A840074C8908023154F8212085
:102EA40022EA030244F8212054F82130184344F85C
:102EB400210030BD00000140014B18607047C0463E
:102EC400DC002042402202642022426460324266D6
:102ED4004FF080620023C0F880204FF0007102F1AF
:102EE4007D42036043608360C36003614361836127
:102EF400C361036243628362C362036343638363A4
:102F0400C3638364C364036543658365C365036600
:102F14008366C366036743678367C367C0F8841027
:102F2400C0F88820A2F56002C0F88C20A2F5F01247
:102F3400C0F8AC204FF48072C0F89030C0F89430E0
:102F4400C0F89830C0F89C30C0F8A030C0F8A41085
:102F5400C0F8A830C0F8B020C0F8B430C0F8B83019
:102F64007047C0460023144A82B001931369C0021B
:102F7400000403F01C03000C8901184301F4F861F8
:102F8400084340F001001061019B013301930A4B97
:102F94001B6913F0010F03D0019A084B9A42F3D92D
:102FA400019A074B9A4201D1002002E0024B5B696F
:102FB40098B202B07047C04600800240FEFF040091
:102FC400FFFF040013B50023114C01932369C002D1
:102FD40003F01C03000443F00303000C89010343C2
:102FE40001F4F8610B4362612361019B0133019396
:102FF400074B1B6913F0010F03D0019A054B9A424A
:10300400F3D9019B0448181A18BF01201CBDC046FF
:1030140000800240FEFF0400FFFF040020B1054AC7
:10302400136843F0080303E0024A136823F008031B
:10303400136070470080024020B1054A136843F0D2
:10304400040303E0024A136823F004031360704787
:10305400008002404A790B7943EA0223074A8350ED
:103064008B78CA781B0443EA02630A7813434A78CC
:1030740043EA0223024A83507047C046408002401C
:10308400448002400F4B10B5186014464FF0000CFA
:1030940000F1100211E04FF4801342F8103C631E5B
:1030A4009C452CBF0346134642F8081C42F8043CD6
:1030B4000CF1010C103201F5BE61A445EBD3024BB7
:1030C400186010BD44B800201090024003680B4300
:1030D40003607047114B10B5186014464FF0000C94
:1030E40000F1100215E04FF0004342F8103C44F2A6
:1030F400F05342F80C3C631E9C452CBF0346134618
:1031040042F8081C42F8043C0CF1010C103201F5A1
:10311400BE61A445E7D3024B186010BD40B800203F
:103124000C9002400068C0F30D407047094B10B585
:1031340018680368002B0ADB13F4004F07D103F46B
:103144004073B3F5407F02D1FFF7ECFF00E00020AD
:1031540010BDC04640B80020436811B123F00043BD
:1031640001E043F0004343607047C046024A1368DD
:1031740043F001031360704700900240024B18684B
:1031840000F001007047C04600900240024B41F23B
:10319400140298507047C04600800240034941F22F
:1031A40018028B5843F480138B5070470080024000
:1031B40020B1054A136843F4005303E0024A13683C
:1031C40023F40053136070471890024020B1054A5D
:1031D400136843F0020303E0024A136823F0020376
:1031E400136070471890024010B50120FFF716FFD6
:1031F400FFF7D4FF0120FFF71FFF0120FFF7D8FFDF
:103204000120FFF7E3FF10BD21B1054A136840EA2E
:10321400030303E0024A136823EA000313607047C0
:103224001C90024084B0002301900393019B01E0B1
:10323400039B013B0393039B002BF9D104B070471C
:1032440070B5002388B007930693834B04461B692B
:1032540001A80E4623F01C05FFF7E0FA02997F4B04
:103264007F4ACB18934202D845F0080506E07D4B0F
:103274007D4ACB18934298BF45F00C05764B3046F7
:103284001D6100214FF40042FFF79CFE002800F06E
:10329400DF807648FFF7C6FF2168002944D0069BEB
:1032A4000121013330460693FFF75CFE10F0040F52
:1032B40003D1069A6E4B9A42F1D9069A6D4B9A4203
:1032C40000F0C680002130464FF480520691FFF78B
:1032D40079FE002800F0BC80069B012101333046B2
:1032E4000693FFF73FFE10F0200F03D1069A604BC0
:1032F4009A42F1D9069A5F4B9A4200F0A9800023C2
:10330400102130460693FFF72DFE10F0040318BF7A
:103314004FF4006310F0020F236201D0002301E098
:103324004FF4804363610FE0226A6369D20842EA82
:103334005302304692B2FFF745FE002800F0888021
:103344006FF07F40FFF76EFF43494B480B6862689C
:1033540003EA0000A3681343E2681343226913439A
:1033640062691343A2691343E2691343226A134354
:10337400626A1343A26A1343E26A1343226B134340
:10338400626B134303430B60A26BE36B1343226C26
:103394001343626C1343A26C1343E26C1343226D18
:1033A4001343626D13434B60A36D8B60E36DCB607D
:1033B400636EA26E88691A43E36E1A43236F1A433D
:1033C400636F1A434FF6417300EA03031A43236EF3
:1033D4002A4842EA03428A61A26FE36F1343CB6136
:1033E40003682749D4F8802003EA0101D4F8843023
:1033F4001343D4F888201343D4F88C201343D4F80F
:1034040090201343D4F894201343D4F89820134302
:10341400D4F89C201343D4F8A02013430B43036037
:10342400D4F8A820D4F8A43001201343D4F8AC2055
:1034340043F400031343D4F8B0201343D4F8B82062
:103444001343D4F8B42043EA82030E4A136000E025
:10345400002008B070BDC0460080024000D3CEFEFC
:10346400BFE1E40040F1E9FD3F787D01FFFF0F007B
:10347400FEFF0400FFFF04000F8120FF18900240AC
:10348400233FDEF800900240012110B54FF4804044
:10349400FFF754FA4FF480400021FFF74FFA10BDB4
:1034A4002DE970430646008B4C6890461D4604F097
:1034B400E1F82070C0F30F206070308C04F0DAF86B
:1034C400C5F30723A07025716371C0F30F20C5F302
:1034D40007432D0EA371E070E571706A04F0D4F80F
:1034E400C0F3072320726372C0F30743000EA37274
:1034F400E072237B607B4FF0000943EA002004F074
:10350400BFF820F03F0040F0100080B204F0B2F8A1
:103514002073C0F30F206073708D04F0ABF8A073B8
:10352400C0F30F20237BE073607B84F8129084F84F
:10353400139043EA002004F0A3F8042398FBF3F863
:1035440008F1050800F03F0040EA083080B204F0BA
:1035540091F82073C0F30F20607384F8109084F8FE
:103564001190738D726A20469B18F362BDE87083D4
:10357400F7B5856F06460DB9456F3DB3012015219A
:10358400002202F0CFF8074600B3296930464A7991
:103594000B79CC7943EA02238A79394643EA024318
:1035A40043EA04630022FFF77BFFAB687A681B7869
:1035B400384613750022009206320192F37A31469E
:1035C400321D04F097F9384602F060F8FEBDC0469B
:1035D40037B5044614210120002202F0A3F8054661
:1035E400B0B1A06D013804F04FF82946034600221B
:1035F4002046FFF755FF0022009206320192E37A3B
:1036040028462146221D04F075F9284602F03EF8AA
:103614003EBDC0462DE9F74F8046894692460120BB
:10362400142100229B46BDF83050BDF8346002F0EE
:1036340079F80746002860D04468284604F01AF850
:103644002070C0F30F206070304604F013F8A070AF
:10365400C0F30F20E070404604F016F8C0F30723CF
:1036640020716371C0F30743000EA371E0714846F3
:1036740004F00AF8C0F3072320726372C0F307430F
:10368400000EA372E072237B607B002543EA0020D6
:1036940003F0F6FF20F03F0040F0140080B203F086
:1036A400E9FF2073C0F30F20607340F6683003F025
:1036B400E1FFA073C0F30F20237BE073607BA5744C
:1036C40043EA0020E57403F0DBFF00F03F0040F420
:1036D400A04003F0CFFF06232073C0F30F206073D4
:1036E400257465743846019351465A46F93300955A
:1036F40004F000F9384601F0C9FFBDE8FE8FC0466A
:103704009D4B2DE9F74F1B680546834200F0C181AC
:10371400B0F85C20B0F85230D0F878809A4234BFC8
:1037240092469A46466FB8F1000F04D0D8F800309C
:103734000BB19846FAE795F8223013F0020F04D142
:1037440005F1040905F1780B6AE196B13269537900
:10375400107940EA0320937940EA0340D37940EAA0
:10376400036003F09FFFB389EA6C9B1A1B1853454F
:10377400E6D901201421002201F0D4FF044608B93F
:10378400FE3087E195F82230A86D23F0030385F815
:10379400223003F079FF2146034600222846FFF732
:1037A4007FFEAA7AEB7A00920622019220462946ED
:1037B4002A1D04F09FF8204601F068FF69E133698F
:1037C4001A7B587B42EA002003F05AFFAB6F7BB1AF
:1037D40095F8221011F0400F0AD16A6F002A00F008
:1037E4005C81136823B992892B8F9A42C0F055816A
:1037F40033686B672B7C022B15D03469237B607B89
:1038040043EA002003F03CFF40F0100080B203F0D4
:1038140031FF2073C0F30F20607395F8223023F03A
:10382400030385F82230686A346903F02DFFC0F37E
:10383400072320726372C0F30743000EA372E07281
:10384400688D346903F016FFA073C0F30F20E07392
:103854006B8D6A6A34699B18EB62B37B13F0010FBA
:1038640003D0464803F010FF60612B6833B9484623
:1038740004F018F8002834D043682B60B5F93630CA
:10388400B3F1FF3F04BF0023EB86EB6B83B93C4BE2
:1038940032691B68EB635379107940EA032093790A
:1038A40040EA0340D37940EA036003F0FBFE286456
:1038B400716830694A684B89821A92B29B1A4B81AB
:1038C4000B8948609B1A0B81002303744374AA7A02
:1038D400EB7A009206220192706829464A4604F067
:1038E40009F832695379107940EA0320937940EA60
:1038F4000340D37940EA036003F0D4FE33690746FA
:103904001A7B587BB48942EA002003F0B9FE10F018
:10391400010F09D133691A7B587B42EA002003F076
:10392400AFFE10F0020000D001200319D819AB6DCE
:10393400B4891B1A002B3369B8BFA8651A7B587B5E
:1039440042EA002003F09CFE10F0010F09D1336914
:103954001A7B587B42EA002003F092FE10F002002A
:1039640000D001200319002B56D000233360AB6F25
:1039740043B9AE674EE0C04670B80020B4050402F7
:103984005CB8002032695379107940EA03209379B6
:1039940040EA0340D37940EA036003F083FED8F899
:1039A400102004465379107940EA0320937940EAC1
:1039B4000340D37940EA036003F074FE241A002C18
:1039C40026DA5F4600E03F683B68EBB11A69537939
:1039D400107940EA0320937940EA0340D37940EA1E
:1039E400036003F05FFE326904465379107940EABC
:1039F4000320937940EA0340D37940EA036003F05B
:103A040051FE241A002CDEDB3B6833603E6006E086
:103A1400C8F80060B04602E0304602F0ABF86E6FC2
:103A2400002E30D032695379107940EA032093791B
:103A340040EA0340D37940EA036003F033FEB389DC
:103A4400EA6C9B1A1B1853457FF6B9AE95F89C4057
:103A5400CCB932695379107940EA0320937940EA6A
:103A64000340D37940EA036003F01CFEEA6CB38997
:103A74009B1AB5F85C201B18934204D90123C5F89E
:103A8400984085F89C3095F8223003F07F0385F840
:103A94002230002040B2BDE8FE8F11F0A00F7FF469
:103AA400A7AED3E72DE9F041876F0546002F32D04A
:103AB4003B6800F17406836700E036683368EBB155
:103AC4001A695379107940EA0320937940EA034054
:103AD400D37940EA036003F0E5FD3A69044653797B
:103AE400107940EA0320937940EA0340D37940EA0D
:103AF400036003F0D7FD241A002CDEDB336828466C
:103B04003B60376095F84A30013385F84A3000232A
:103B1400EB63FFF7F5FDBDE8F081C046826F10B599
:103B240082B111461268002AFBD1436FC2630B6055
:103B3400836F8267436790F84A30013380F84A30D4
:103B4400FFF7DEFD10BDC0462DE9F04F8BB00293A8
:103B54009DF850300646049101939DF854B00392A9
:103B64005AB9BBF1000F04D1029A12F0030F00F00E
:103B7400A981049B002B40F0A581B6F86E30039A0E
:103B8400934210D31BF0010218BF04221BF002035E
:103B940018BF0C23B6F870909A18B36EB9F10B0FD6
:103BA4000992069308D996F822306FEA43636FEAC4
:103BB400536386F8223083E1099A0024930805337D
:103BC4001B030593039A049B07920893274604203A
:103BD400B6F8388001F09EFB0546002800F06481A9
:103BE4000023036043600FB9074600E02060099A90
:103BF400C2EB0803079A9A42B8BF13461FFA83F828
:103C0400019B13F0010020D0099A002008EB020167
:103C140089B2024601F086FD6860002800F0448104
:103C240001F092FC049B04463BB16B68099A586806
:103C3400089980184246FCF7CDFE09EB04031FFAED
:103C440083F96B685B68AB6025E00999024601F073
:103C540069FD6860002800F0278101F075FC079B6E
:103C640048441FFA80F9B3B103204146012201F010
:103C740059FD044620B9686801F008FD6C6013E141
:103C8400089A09F1010342602146AA6068681FFA94
:103C940083F901F069FCB9F10C0F00F20581A5F874
:103CA4000C806868142101F019FC8246002840F059
:103CB400FB806B68308B5C682C6103F0DBFC20704C
:103CC400C0F30F206070308C2C6903F0D3FCA0701B
:103CD400C0F30F20E07006982C6903F0D5FCC0F304
:103CE400072320716371C0F30743000EE071A371D1
:103CF4002B6983F812A083F813A02C69237B607BC3
:103D040043EA002003F0BCFC029B20F03F00184370
:103D140080B203F0AFFC2073C0F30F2060732C69F2
:103D240085F80EB0237B607B43EA002003F0A8FCF7
:103D3400059A00F03F0042EA000003F09BFC207368
:103D4400C0F30F206073079A2C46C8EB02039BB2A2
:103D5400089A0793069B4244434406930892002F13
:103D64003FF435AF079B002B7FF431AF746F002C09
:103D74005FD023680BB11C46FBE72369B4F80CA0A1
:103D84001A7B587B42EA002003F07AFC10F0010F02
:103D940009D123691A7B587B42EA002003F070FCA6
:103DA40010F0020000D0012000EB0A03002B00F009
:103DB400908023691A7B587B42EA002003F060FC60
:103DC400029A104310F0030F40F08380A289BB894C
:103DD4009B18328F93427CDCA27BBB7B9A4278D1C6
:103DE400099B6FF013017868C91A01F077FB00286A
:103DF4005AD17868428942B903687B6009F1FF337C
:103E040002601FFA83F901F041FC6068796801F0EF
:103E1400ABFBBB89A28939469B18A3813B68BD4291
:103E240004BFB4F80C8025462360042001F082FA14
:103E340000E07767029A12F0020F02D112F0010F2C
:103E440003D0039A531C9BB20393029B13F0010FFC
:103E540005D096F8223043F0200386F82230B36E62
:103E6400039AA6F870909B18B366B6F86E309B1A46
:103E7400A6F86E30B8F1000F26D02C6924B3019B4C
:103E840013F0020520D1237B607B43EA002003F07A
:103E9400F7FB40F0080080B203F0ECFB2073C0F3A2
:103EA4000F206073284610E096F822306FEA4363CF
:103EB4006FEA536386F8223017B1384601F06AFE80
:103EC400FF2002E0F62000E0002040B20BB0BDE885
:103ED400F08F2760AEE7C04690F810C007B5BCF17C
:103EE400040F0AD0BCF1070F07D0BCF1020F04D0B5
:103EF400BCF1030F01D0F82206E02AB1009300239D
:103F04000193FFF721FEC2B250B20EBD07B50B46B6
:103F14000122002100920A460191FFF715FE40B2EA
:103F24000EBDC0461B4B70B51D6804462B4610469B
:103F3400002603E09C4208BF0126DB68002BF9D170
:103F440049B14A780B7843EA02238A7843EA024368
:103F5400CA7843EA0261216090B92A4600F580508C
:103F640007E0538A834203D1431C98B22A4600E0F7
:103F7400D2682AB147F6FF739842F2D1F52007E0E0
:103F840060820EB1002003E0024BE56030461C6005
:103F940040B270BD4CB8002070B51646428A044643
:103FA4000D4622B90146FFF7BDFFC0B200BB0DB9F3
:103FB400294609E06A782B7843EA0223AA7843EA7F
:103FC4000243EA7843EA0261237C616043F004031C
:103FD4002374084BA6821B68184604E0844201D16E
:103FE400002005E0C0680028F8D1E360014B1C60A4
:103FF40040B270BD4CB8002009494A780B7843EAB6
:1040040002238A7843EA0243CA7843EA026343609C
:104014004FF000038382037C23F00403037470478E
:10402400583D01088161C2617047C04610B5012046
:1040340001F070F9044630B100212022FCF716FD8E
:104044004FF0FF33E372204610BDC04601460A48D4
:1040540010B502688A4209D1CB68036008E0D368CE
:104064001BB18B4204BFCB68D360D268002AF6D15F
:10407400012001F05FF910BD4CB800202DE9F04F8C
:104084009346428A85B0074688469A46DDF83890BA
:104094002AB90146FFF746FFC4B2002C4ED1404670
:1040A400082101F01BFA08B946460BE0012008215B
:1040B400002201F037FB064608B9FF243EE04146E2
:1040C40001F062FA788A756803F0D4FA2870C0F3B4
:1040D4000F206870504603F0CDFA0024A870C0F396
:1040E4000F20E870AC71EC713A6812B909F104045C
:1040F4000BE0D9F804309A4206D0464502D0304647
:1041040001F0C4FAF72419E03C46308903F0B2FA0E
:104114002871C0F30F206871BA7AFB7A00921122D9
:104124000192214630465A46CDF8089003F01AFB16
:104134004645C4B202D0304601F0A8FA60B205B0D8
:10414400BDE8F08FF7B5054610460E4614461F46E7
:1041540003F0A8FB08B9FC3007E00090314628467C
:1041640022463B46FFF78AFFC0B240B2FEBDC046BE
:1041740010B5021D838AFFF7E5FF40B210BDC046AB
:104184002DE9F347466804893378074670788A46F0
:1041940043EA002003F074FAC0F303200230B4EBC6
:1041A400800FC0F2D7807378307840EA032003F0A0
:1041B40067FAC0F3032189003846494201F08EF9B9
:1041C4000546002840F0C680514606F110007C6880
:1041D40003F0A2FC23788146607843EA002003F0D0
:1041E4004FFAA3788046E07843EA002003F048FAC7
:1041F4004428864619D1B8F1430F5ED1DAF820106D
:1042040000295AD08D68002D58D06968002963D0E0
:10421400727B337B43EA0223B27B43EA0243F27BA1
:1042240043EA0263994248D156E04F4B2846D3F8FB
:1042340000C02946644639E0638A734534D1B9F134
:10424400000F01D123687BB1727C337C43EA0223E3
:10425400B27C43EA0243F27C43EA026322689A4254
:1042640002D0B9F1000F1FD0002977D1237C13F0BD
:10427400040F14BF0021214670E065685DB1727BB4
:10428400337B43EA0223B27B43EA0243F27B43EAF1
:1042940002639D4208D12546F0B1E368C360324B06
:1042A400C4F80CC01C6017E02046E468002CC3D19D
:1042B40009B10D4610E00D4600E00025727C337C08
:1042C40043EA0223B27C43EA0243F27C43EA0263F8
:1042D400DAF804209A423DD138466FF0070101F024
:1042E400FDF8002836D15DB1AC69002C32D0CDF890
:1042F4000080E86929463A4606F10C03A04731E0FC
:10430400B9F1000F26D1737C347C4FF0704044EA3D
:104314000324B37C44EA0344F37C44EA036403F0D7
:10432400C1F905464FF0604003F0BCF925408542D1
:1043340010D07378307840EA032003F0A1F9C0F379
:10434400032102318900384601F0C8F838460321B8
:1043540003F0B8F8384601F099F903E0A38A43451D
:10436400A2D18AE7BDE8FC874CB8002003788B42D1
:1043740002D00023017043707047C04610B5036A31
:10438400848C1B1983F8F010036A0134A4B21B193E
:10439400013483F8F020848410BDC046828C036A03
:1043A4009B18013283F8F01082847047828C036A70
:1043B40010B59B180C0A83F8F040036A013292B2DC
:1043C4009B18013283F8F010828410BD828C036A3A
:1043D40010B59B180C0E83F8F040036A013292B2B8
:1043E4009B18C1F3074483F8F040036A013292B288
:1043F4009B18C1F3072483F8F040036A013292B298
:104404009B18013283F8F010828410BD10B5044665
:10441400A8B1838C026A4FF0FF31D21882F8F010F1
:10442400013305E0236A00225B1883F8F0204B1C5B
:10443400A384A18C4329F5D911F0030FF2D110BD47
:1044440070B5044640690E4600283CD0258B002DEB
:1044540039D000210B460EE0342A04D102339BB23A
:10446400C15C013306E0B2422FD001339BB2C25C7F
:1044740001339B189BB2AB4204D2C25C00EB030C29
:10448400FF2AE9D1F9B1012904D123697F3103F16C
:104494006C0007E00229206902D12C303E3101E092
:1044A4002C30C021002309E0B2420ED001339BB26C
:1044B400C25C01339B189BB28B4204D2C25C00EBFA
:1044C400030CFF2AF0D14FF0000C604670BDC046CB
:1044D4000246407812F8013B000440EA0360537836
:1044E40040EA0320937818437047C04610B540B1A2
:1044F400046A34B1E06908B101F0C8F80023E3614B
:10450400236210BD10B50446006918B100F0C8FD5F
:1045140000232361606920B100F0C2FD00236361C0
:10452400238310BD70B590F82E30046A23F008037D
:10453400054680F82E309CB1A06818B1FFF786FDBF
:104544000023A360E06818B101F0A0F80023E36041
:104554002046FFF7D7FF204600F0A2FD00232B6280
:1045640070BDC0462DE9F041074608B9F63099E020
:10457400066A0EB9F72095E000204FF49A710246BE
:1045840001F0D0F8F06108B9FF308BE073781BB903
:10459400464A136801331360444B01221B6800240C
:1045A4007360F3695B6833621A70336A5A70326AF3
:1045B40006239370336ADC707068356A03F064F81C
:1045C400C0F3072328716B71C0F30743000EAB716E
:1045D400E871336A1C725C72336A9C72DC72336AEF
:1045E4001C735C739C73DC7333780A2B03D0052B28
:1045F40001D0042B08D13B79326A13737B7953734E
:10460400BB799373FB79D373326A002313745374A5
:104614009374D374326A1946137553759375D375AD
:10462400326A137653769376D37697F824208BB236
:104634009A42306A01D8002202E07B1893F82520C0
:104644004318013110291A77EFD10022336A00216F
:104654009B180132402A83F82C10F7D10A46336A9A
:1046640000259B180132802A83F86C50F7D110483A
:10467400346A03F009F8C0F3072384F8EC0084F8E3
:10468400ED30C0F30743000E84F8EE3084F8EF00F9
:104694002A46B584336A9B1883F8F0200132442AF1
:1046A400F8D1002040B2BDE8F081C0464412002099
:1046B40063538263F7B5056A06460D212846FFF762
:1046C40055FE0023EB626B632B63EB63AB636B659B
:1046D4002B65EB642B643046FFF744FFC7B217BB6E
:1046E400012228463521FFF749FE07212846FFF716
:1046F40055FE2846FFF78AFEA98CE869F03189B295
:1047040005F12C0400F0E6FF21464322A868FFF7D8
:1047140043FC0096A868E96922464323FFF7AEFCF0
:104724003046FFF7E3FE6B780133DAB2092A6A7088
:1047340002D942F2107303E04FF47A7353439BB2ED
:1047440003F5F8734FF4FA72033393FBF2F3EB843B
:10475400304600F023FE3046064900F041FE304664
:10476400044900F0F5FD3046024900F001FE78B23C
:10477400FEBDC046583D0108F7B5056A0646052149
:104784002846FFF7F3FD3046FFF7ECFEC7B25FBBE8
:10479400012228463521FFF7F1FD28460321FFF7C2
:1047A400FDFD022228463921FFF7E8FDB18D284698
:1047B400FFF7FCFD2846FFF729FEA98CE869F031D4
:1047C40089B205F12C0400F085FF21464322A86834
:1047D400FFF7E2FB0096A868E96922464323FFF746
:1047E4004DFC3046FFF782FE6B780133DAB2092ABA
:1047F4006A7002D944F6206303E04FF4FA6353432A
:104804009BB203F5F87303334FF4FA7293FBF2F39C
:10481400EB8478B2FEBDC046F7B5374E046A7278B1
:104824003378054643EA0223B278204643EA02433A
:10483400F278062143EA02632363FFF797FD2846D3
:10484400FFF790FEC7B2002F3ED10122204635214A
:10485400FFF794FD20460121FFF7A0FD0222204628
:104864003921FFF78BFD2046A98DFFF79FFD042218
:1048740020463721FFF782FD20460121FFF78EFDF8
:1048840020460321FFF78AFD20461C21FFF786FD01
:1048940006212046FFF782FD2046FFF7B7FDA18CD5
:1048A400E069F03189B200F015FF31464322A06877
:1048B400FFF772FB0095A068E169104A4323FFF7F4
:1048C400DDFB2846FFF712FE63780133DAB2052ACE
:1048D400627002D94EF6602303E04FF47A7393407A
:1048E4009BB203F5F87303334FF4FA7293FBF2F3BC
:1048F400E38478B2FEBDC046583D01085C3D010822
:1049040073B5046A054604212046FFF72FFD2846A7
:10491400FFF728FEC6B24EBB012220463521FFF721
:104924002DFD20460321FFF739FD022220463921BF
:10493400FFF724FDA98D2046FFF738FD2046FFF739
:1049440065FDA18CE069F03189B200F0C3FE134922
:104954004322A068FFF720FB0095A068E169104A94
:104964004323FFF78BFB2846FFF7C0FD6378013331
:10497400DAB2092A627002D942F2107303E04FF4EA
:104984007A7353439BB203F5F87303334FF4FA720B
:1049940093FBF2F3E38470B27CBDC046583D01083A
:1049A4005C3D0108144B10B51C6821E0216AF1B18B
:1049B4004A8D531E012A4B850AD10B78012B03D053
:1049C4000A2B01D0052B12D12046FFF799FF0EE0E8
:1049D4000A8D531E012A0B8509D10B78012B03D0B4
:1049E4000A2B01D0052B02D12046FFF7C5FE24680F
:1049F400002CDBD110BDC04650B8002037B50546A9
:104A040000284FD0046A002C4CD02378082B49D1BD
:104A14004A780B7843EA02238A7843EA0243CA7845
:104A240043EA0263226B93423CD10C212046FFF7F8
:104A34009DFC2846FFF796FD10F0FF0F2CD10122B4
:104A440020463521FFF79AFC20460421FFF7A6FCF7
:104A5400042232212046FFF791FC206B02F022FE53
:104A640001462046FFF7B2FC2046FFF7CFFCA18C9D
:104A7400E069F03189B200F02DFE0B494322A068B1
:104A8400FFF78AFA0095A068E169084A4323FFF713
:104A9400F5FA2846FFF72AFD6378013363704FF077
:104AA4001403E3843EBDC046583D01085C3D010843
:104AB40073B5046A054601212046FFF757FC2846D2
:104AC400FFF750FDC6B2002E56D1012235212046F3
:104AD400FFF754FC03212046FFF760FC0222392132
:104AE4002046FFF74BFC2046A98DFFF75FFC04220C
:104AF40032212046FFF742FC206B02F0D3FD014631
:104B04002046FFF763FC042236212046FFF736FCDB
:104B1400E06A02F0C7FD01462046FFF757FC042275
:104B240037212046FFF72AFC01212046FFF736FCF7
:104B340003212046FFF732FC1C212046FFF72EFC00
:104B440006212046FFF72AFC2046FFF75FFCA18CD4
:104B5400E069F03189B200F0BDFD00954323E169BD
:104B6400114AA068FFF78AFAA06810494322FFF7A8
:104B740013FA2846FFF7BAFC63780133DAB2052A40
:104B8400627002D94EF6602303E04FF47A739340C7
:104B94009BB203F5F87303334FF4FA7293FBF2F309
:104BA400E38470B27CBDC0465C3D0108583D0108F9
:104BB40070B5064608B9F63049E090F82E30056A1B
:104BC40023F0080380F82E30838DB3F5107F3DD396
:104BD4003DB9582000F012FB0546002836D030625B
:104BE40007E0A86808B1FFF731FAE86808B100F0F7
:104BF4004DFD002158222846FBF738FFFFF716FA2F
:104C04000446A86020B9284600F04AFA34621DE040
:104C140010494422FFF786F90E494322A868FFF79A
:104C2400BBF9A8680C493246FFF7FCF93046FFF798
:104C3400F3FDC0B218B13046FFF774FC06E096F8F5
:104C44002E3043F0080386F82E3000E0FF2040B2F7
:104C540070BDC046583D0108514D000870B5046A46
:104C6400054608212046FFF781FB284604F1300160
:104C7400002203F01FFC6378013363704FF00103DB
:104C8400E38470BD73B5064600285CD0056A002D28
:104C940059D02B6DB3F1FF3F0ED03C221E33B3FB32
:104CA400F2F34FF6FF72934228BF13469BB22B8553
:104CB40013B94FF001032B856B6DB3F1FF3F0ED099
:104CC4003C221E33B3FBF2F34FF6FF72934228BF2C
:104CD40013469BB26B8513B94FF001036B85686B68
:104CE400019080B902F0DEFC000E10F0800F02D1BA
:104CF4004FF07F4004E0BF2894BF13486FF0FF00DB
:104D040002F0C2FC0190AB6B009343B92B6B019C86
:104D140001201C40009402F0B7FC20430090304670
:104D240005F1300100F05CFB304601A900F020FBE6
:104D34006946304600F00CFB304600F03FFB284645
:104D44000A21FFF713FB7CBD0000FFFF2DE9F047AC
:104D5400066A5468F26023780746022B914640F0B5
:104D64002D8190F82450002108E0621890F8253035
:104D7400127F01310130934240F02081CBB2AB422B
:104D8400F3D36379207940EA0320A37940EA03400E
:104D9400E37940EA036002F085FC7368984240F0CE
:104DA4000D81F368002B00F009813046FFF7AAFB60
:104DB400F3681889F02808D9F03880B2308300F0FD
:104DC4001DFA7061002800F0F980F02000F016FA56
:104DD4000446306120B9706900F062F97461EDE055
:104DE4002146F068F022002300F0D6FB716921B15E
:104DF400F068328BF02300F0CFFB30463521FFF70B
:104E04001FFB002800F0DA808078052840F08A80B3
:104E14003378012B7BD13C6A013B6363A363E36377
:104E240020463321FFF70CFB18B10230FFF750FB8B
:104E3400E06420463A21FFF703FB20B10230FFF77C
:104E440047FB206502E0E36C5B08236520463B21B9
:104E5400FFF7F6FA20B10230FFF73AFB606501E094
:104E6400E36C6365216911F1100309D04A7C0B7C62
:104E740043EA02238A7C43EA0243CA7C43EA02638C
:104E8400236320460121FFF7DBFA28B10230FFF744
:104E94001FFB02F0F9FB606320460321FFF7D0FA01
:104EA40028B10230FFF714FB02F0EEFBA0632046AA
:104EB4001C21FFF7C5FA28B10230FFF709FB02F005
:104EC400E3FBE06320460621FFF7BAFA8046B8B157
:104ED40043789B08022B236401D902232364002511
:104EE4000BE008EB85000230FFF7F2FA02F0CCFB8E
:104EF40004EB850358646B1CDDB2236C9D42F0D334
:104F04004FF00003F3843846FFF7A8FE56E0033B56
:104F1400DBB2022B52D84FF00003F3843846FFF77C
:104F2400B1FE4BE0062823D13378032B05D0012BA7
:104F340003D0042B01D0052B40D14FF00003F384A0
:104F440038463C6A00F02AFA3846214900F048FA0B
:104F540038461F4900F0FCF938461D4900F008FAAC
:104F640020460C21FFF702FA3846FFF755FC25E0EE
:104F7400022823D13378062B20D13C6A4FF000035A
:104F8400F38420463621FFF75BFAB8B10230FFF70D
:104F94009FFA02F079FB2169E06211F1100309D054
:104FA4004A7C0B7C43EA02238A7C43EA0243CA7CA0
:104FB40043EA026323633846FFF77AFD3046FFF77E
:104FC400A1FA484600F062FB0023F360BDE8F087D5
:104FD400583D0108224B10B51C683DE0226A002AA6
:104FE40039D0D38C012B02D9013BD38433E032D1A5
:104FF4004FF00003D38413780C2B29D0062B27D031
:10500400012B06D15378052B1FD82046FFF750FDFE
:1050140021E0082B0AD15378012B03D82046FFF74F
:105024001DFE18E02046FFF72DFE14E0052B03D1EA
:105034002046FFF7A1FB0EE0042B0CD15378082B7C
:1050440003D82046FFF75CFC05E02046FFF732FB5F
:105054002046FFF7E1FB2468002CBFD110BDC046F9
:1050640050B800200C4A10B50C4C22F003024FF447
:10507400A04100235380C4F8342C01201371531829
:105084001180C4F8383C198018715980C4F8402C38
:1050940084F83C0C10BDC046AB1300208857002098
:1050A40030B50446002845D0234AD2F8341C88423F
:1050B40040D3D2F8385CA8423CD2002304F8043C24
:1050C400D2F8403CA0F1080034F808CC984238BF2C
:1050D400C2F8400C01EB0C02904213D013798BB947
:1050E400AA420FD0144DD5F8403C934231F80C300D
:1050F40008BFC5F8400C24F8083C31F80C30421ABB
:10510400CB185A8034F806CC01EB0C02824211D041
:1051140013797BB9084DD5F8403C834234F8083CF8
:1051240008BFC5F8402C21F80C3034F8083C521A5A
:10513400CB185A8030BDC0468857002003314FF643
:10514400FC7201EA02020B2A2DE9F041074601D85C
:105154000C2202E0B2F5A04F49D8DFF89C80D8F8C1
:10516400340C874244D3D8F8383C9F4240D2A7F14C
:10517400080637F8081C331A9DB2A1F108035B1B1B
:105184001FFA83FC624532D832D04418237993B98C
:1051940005F10803D31830F801C099B2D8F8403C9F
:1051A400A34202D14318C8F8403C421800231371AB
:1051B40020F801C012E002F11403634518D805F188
:1051C4000803D31899B2D8F8403C42189A4238BF21
:1051D400C8F8402C00231371338843523180558022
:1051E400425AB2F5A04F03D08318598000E000273B
:1051F4003846BDE8F081C04688570020F0B5002845
:105204004DD0C31C4FF6FC7103EA01010B2901D8F0
:105214000C2102E0B1F5A04F41D8224BD3F8407CD9
:10522400D3F8344C3B1B9AB235E0A0180679002E13
:1052340030D1A55AA5F10803C2EB030C8C4529D340
:1052440001F114039C4511D301F10803D31899B259
:1052540063181E7165525A80018001230371635AD9
:10526400B3F5A04F04D0E318598001E00123037182
:10527400B8420DD10B4B0246D3F8381C01E0138819
:10528400E21813790BB18A42F9D1064BC3F8402CCA
:10529400083005E00288C1F5A0439A42C5DB00202E
:1052A400F0BDC0468857002070B500FB01F4A0B2E1
:1052B400FFF7A4FF054618B100212246FBF7D6FBF1
:1052C400284670BD0F4B002130B58C4623F00304F3
:1052D4000D4A002353500D4A184632F80C5009E089
:1052E400094A535823600A4B545033F80C30E418DD
:1052F400431C98B2A842F3D3043124290CF1020CC4
:10530400E6D130BDCF63002058AA0020203D01081B
:10531400323D0108082801D9002008E0044B03EBC2
:105324008002D2F8AC0210B10368C2F8AC32704704
:10533400ACA70020024639B1044B03EB8203D3F837
:10534400AC220A60C3F8AC127047C046ACA7002078
:1053540010B5044601B909E04A780B7843EA022300
:105364008A7843EA0243CA7843EA0261E16010BDE5
:1053740010B5044601B909E04A780B7843EA0223E0
:105384008A7843EA0243CA7843EA0261A16010BD05
:10539400014B18607047C04654B8002090F82E3076
:1053A40013F0010F1CBF23F0010380F82E30704767
:1053B40090F82E0000F001007047C04610B590F838
:1053C4002E3013F0010F09D143F0010313F0200F25
:1053D40080F82E3002D0011D02F036FF10BDC04609
:1053E40070B54A780B78064643EA02238A780C465D
:1053F40043EA0243CA7843EA02634268934223D0F1
:10540400174B186808E002687368C5689A4202D1AD
:10541400012100F0D3FC28460028F4D1114B19686F
:1054240010E00A686AB173689A420AD162782378F4
:1054340043EA0223A27843EA0243E27843EA02639E
:105444000B60C9680029ECD16278237843EA02230F
:10545400A27843EA0243E27843EA0263736070BDD0
:1054640058B8002060B8002070B5044615461E46A2
:10547400FFF7B6FF20462946FFF77AFF204631465C
:10548400FFF766FF70BDC0462DE9F041002780F8A4
:105494002E70069C0F4D47608760C7600762C46129
:1054A4002C78064680F8314001342C70089C046145
:1054B400FFF7DAFF3046079B984710F0FF0F01D043
:1054C4003E4603E0044A1368336016603046BDE884
:1054D400F081C0467CAA002050B800208C460029E8
:1054E4002ED000282CD0002906DAC1F100039AB28C
:1054F4004389934201D225E08AB2037B41680BB110
:10550400032B08D1CCEB010200F110039A42426054
:105514000ED2416016E0013B9BB2012B12D8BCF1C4
:10552400000F0FDA438993420CD3CCEB01034360A1
:1055340042891FFA8CF39A18428102899B180381CD
:10554400002000E0012070470246002002E0431CD6
:105554001268D8B2002AFAD17047C04610B1C38984
:105564000133C3817047C04610B560B119B90AE070
:105574009B180381204604680B890289002CF7D10B
:105584009B180381016010BD10B50C46FFF7ECFFBA
:105594002046FFF7E3FF10BD2DE9F047894690460A
:1055A40040B339B30026054637461DE02BB16A895E
:1055B400934202D39B1A9BB215E06C896968E41A82
:1055C400A4B2444528BF444609EB0600C918224644
:1055D400FBF700FAE3199FB2A319C4EB08049EB2C7
:1055E4001FFA84F800232D68B8F1000F03D0002DB2
:1055F400DCD100E000273846BDE8F0872DE9F04112
:105604000D46064600283AD0002938D002890B8975
:105614009A4234D30027B84673896A89DB1BC8EBE6
:105624000202934270686968ACBF94B29CB2414470
:10563400C0192246FBF7CEF9E3199FB204EB080325
:105644001FFA83F87389BB426B8904BF366800274D
:1056540043459CBF2D684FF000082DB16A892B8902
:105664009A4201D12B6863B92EB1728933899A4267
:1056740001D133682BB9002DCED1294602E0F621A1
:1056840000E0F72148B2BDE8F081C04670B501469C
:1056940008B904461BE00024CB89013B9BB2CB81B3
:1056A400ABB90B7B0D68032B01D1082004E0013B4F
:1056B4009BB2012B03D80720FFF73CFE02E008460B
:1056C400FFF7EEFC631CDCB22946002DE4D1204632
:1056D40070BDC046038970B5994221D2C3EB010C59
:1056E40004460D4605E0AB1A9DB223896344238129
:1056F400246862899542F6D8237B4BB9954207D03A
:10570400616820466918091B89B2FFF717FD044632
:1057140020686581258108B1FFF7B8FF0023236065
:1057240070BDC0462DE9F0410E461746032800F22D
:105734008380DFE800F006080402002407E0002369
:1057440003E0142300E0002314330E339CB2032F30
:1057540072D8DFE807F04A6060020820FFF7DAFD3C
:105764000546002869D0032303730023036004F172
:105774001303C31823F003034360E31C23F0030360
:10578400C3F5BA630C33B342A8BF334643814FF029
:105794000103C381438906810746F61A22E00820E3
:1057A400FFF7B8FD044620B92846FFF76FFF2546EA
:1057B40043E00323037300230360437340F2DC518B
:1057C400B3B240F2DB520381934288BF0B4643815C
:1057D40000F1100343604FF00103C3814389386033
:1057E400F61A0746002EDADC20E01334F31C23F00B
:1057F400030324F00300C01880B2FFF7FFFC054642
:10580400D8B1031923F003034360002306814681C2
:10581400036003730AE00720FFF77CFD054660B1CF
:105824000023436006814681036007734FF0010340
:10583400EB8100236B7300E000252846BDE8F0816E
:105844002DE9F04744680746237A607A04F10C088E
:1058540043EA002001F014FF134B5FFA80F91D683E
:1058640000241BE02B7C4B4513D16E698EB1A869D3
:1058740029463A464346B04758B10CB9274606E094
:10588400EB68094AE36013680027EB6015600120A8
:1058940000E00020EB682C4618B91D46002DE1D12C
:1058A4002846BDE8F087C04680AA00206FF00400B7
:1058B4007047C04610B5416A048D038F04EB010C98
:1058C400C26AC3EB0C039B1A002B03DB4485C2EBB7
:1058D4000C0006E08B1A002BCCBF0023531A43851F
:1058E400002010BD154B30B51D68154B1C68154BB9
:1058F4001968154B1888431C98B210F4004F18BF50
:105904004FF480502A4603E0138B8342F3D0D268CD
:10591400002AF9D1224603E0138B8342EBD0D268EC
:10592400002AF9D10A4603E0138B8342E3D0D268FC
:10593400002AF9D1044B188030BDC04658B8002065
:105944006CB8002060B8002048120020037C2DE9C8
:10595400F04106460C4615460BB1F32083E012B91C
:10596400FFF7C0FF0546414B196815E00B8BAB42AE
:1059740011D10868002875D0002C73D06378227880
:1059840042EA0322A37842EA0342E37852EA036339
:1059940068D0984266D0C9680029E7D1344B1968A9
:1059A40015E00B8BAB4211D1086800285AD0002CAB
:1059B40058D06378227842EA0322A37842EA034269
:1059C400E37852EA03634DD098424BD0C96800296A
:1059D400E7D1284B1F68394615E00B8BAB4211D138
:1059E400086800283ED0002C3CD06378227842EA34
:1059F4000322A37842EA0342E37852EA036331D0F4
:105A040098422FD0C9680029E7D11B4B196810E0D0
:105A14000B8BAB420CD16278237843EA0223A27841
:105A240043EA0243E27843EA02630A689A4219D0DD
:105A3400C9680029ECD17CB16278237843EA022357
:105A4400A27843EA0243E27853EA026204D0304681
:105A540021460422FAF7BEFF064BF76035831E6029
:105A6400002000E0F52040B2BDE8F08160B80020DD
:105A740058B8002068B800206CB800204161704715
:105A8400C0F884107047C046C0F880107047C04604
:105A9400C0F890107047C046C1617047C0F88C10C0
:105AA40080F835207047C046034A044B1868536891
:105AB400C01850607047C046481200205CB80020EF
:105AC40010B50446084601F0EDFE38B1808D28B1CA
